{"abi":[{"type":"constructor","inputs":[],"stateMutability":"nonpayable"},{"type":"function","name":"allowance","inputs":[{"name":"","type":"address","internalType":"address"},{"name":"","type":"address","internalType":"address"}],"outputs":[{"name":"","type":"uint256","internalType":"uint256"}],"stateMutability":"view"},{"type":"function","name":"approve","inputs":[{"name":"_spender","type":"address","internalType":"address"},{"name":"_value","type":"uint256","internalType":"uint256"}],"outputs":[{"name":"success","type":"bool","internalType":"bool"}],"stateMutability":"nonpayable"},{"type":"function","name":"approveAndCall","inputs":[{"name":"_spender","type":"address","internalType":"address"},{"name":"_value","type":"uint256","internalType":"uint256"},{"name":"_extraData","type":"bytes","internalType":"bytes"}],"outputs":[{"name":"success","type":"bool","internalType":"bool"}],"stateMutability":"nonpayable"},{"type":"function","name":"balanceOf","inputs":[{"name":"","type":"address","internalType":"address"}],"outputs":[{"name":"","type":"uint256","internalType":"uint256"}],"stateMutability":"view"},{"type":"function","name":"burn","inputs":[{"name":"_value","type":"uint256","internalType":"uint256"}],"outputs":[{"name":"success","type":"bool","internalType":"bool"}],"stateMutability":"nonpayable"},{"type":"function","name":"burnFrom","inputs":[{"name":"_from","type":"address","internalType":"address"},{"name":"_value","type":"uint256","internalType":"uint256"}],"outputs":[{"name":"success","type":"bool","internalType":"bool"}],"stateMutability":"nonpayable"},{"type":"function","name":"decimals","inputs":[],"outputs":[{"name":"","type":"uint8","internalType":"uint8"}],"stateMutability":"view"},{"type":"function","name":"getTokenInfo","inputs":[],"outputs":[{"name":"","type":"string","internalType":"string"},{"name":"","type":"string","internalType":"string"},{"name":"","type":"uint256","internalType":"uint256"},{"name":"","type":"uint256","internalType":"uint256"}],"stateMutability":"view"},{"type":"function","name":"initialize","inputs":[{"name":"tokenName","type":"string","internalType":"string"},{"name":"tokenSymbol","type":"string","internalType":"string"},{"name":"initialSupply","type":"uint256","internalType":"uint256"}],"outputs":[],"stateMutability":"nonpayable"},{"type":"function","name":"name","inputs":[],"outputs":[{"name":"","type":"string","internalType":"string"}],"stateMutability":"view"},{"type":"function","name":"symbol","inputs":[],"outputs":[{"name":"","type":"string","internalType":"string"}],"stateMutability":"view"},{"type":"function","name":"totalSupply","inputs":[],"outputs":[{"name":"","type":"uint256","internalType":"uint256"}],"stateMutability":"view"},{"type":"function","name":"transfer","inputs":[{"name":"_to","type":"address","internalType":"address"},{"name":"_value","type":"uint256","internalType":"uint256"}],"outputs":[{"name":"success","type":"bool","internalType":"bool"}],"stateMutability":"nonpayable"},{"type":"function","name":"transferFrom","inputs":[{"name":"_from","type":"address","internalType":"address"},{"name":"_to","type":"address","internalType":"address"},{"name":"_value","type":"uint256","internalType":"uint256"}],"outputs":[{"name":"success","type":"bool","internalType":"bool"}],"stateMutability":"nonpayable"},{"type":"event","name":"Approval","inputs":[{"name":"_owner","type":"address","indexed":true,"internalType":"address"},{"name":"_spender","type":"address","indexed":true,"internalType":"address"},{"name":"_value","type":"uint256","indexed":false,"internalType":"uint256"}],"anonymous":false},{"type":"event","name":"Burn","inputs":[{"name":"from","type":"address","indexed":true,"internalType":"address"},{"name":"value","type":"uint256","indexed":false,"internalType":"uint256"}],"anonymous":false},{"type":"event","name":"Transfer","inputs":[{"name":"from","type":"address","indexed":true,"internalType":"address"},{"name":"to","type":"address","indexed":true,"internalType":"address"},{"name":"value","type":"uint256","indexed":false,"internalType":"uint256"}],"anonymous":false}],"bytecode":{"object":"0x60806040526002805460ff1916601217905534801561001d57600080fd5b506110818061002d6000396000f3fe608060405234801561001057600080fd5b50600436106100ea5760003560e01c806379cc67901161008c578063abb1dc4411610066578063abb1dc44146101da578063b119490e146101f2578063cae9ca5114610207578063dd62ed3e1461021a57600080fd5b806379cc6790146101ac57806395d89b41146101bf578063a9059cbb146101c757600080fd5b806323b872dd116100c857806323b872dd14610147578063313ce5671461015a57806342966c681461017957806370a082311461018c57600080fd5b806306fdde03146100ef578063095ea7b31461010d57806318160ddd14610130575b600080fd5b6100f7610245565b6040516101049190610ac9565b60405180910390f35b61012061011b366004610af8565b6102d3565b6040519015158152602001610104565b61013960035481565b604051908152602001610104565b610120610155366004610b22565b610340565b6002546101679060ff1681565b60405160ff9091168152602001610104565b610120610187366004610b5e565b6103fc565b61013961019a366004610b77565b60046020526000908152604090205481565b6101206101ba366004610af8565b6104d5565b6100f761066a565b6101206101d5366004610af8565b610677565b6101e261068d565b6040516101049493929190610b92565b610205610200366004610c77565b6107e6565b005b610120610215366004610ce4565b610836565b610139610228366004610d4f565b600560209081526000928352604080842090915290825290205481565b6000805461025290610d82565b80601f016020809104026020016040519081016040528092919081815260200182805461027e90610d82565b80156102cb5780601f106102a0576101008083540402835291602001916102cb565b820191906000526020600020905b8154815290600101906020018083116102ae57829003601f168201915b505050505081565b3360008181526005602090815260408083206001600160a01b038716808552925280832085905551919290917f8c5be1e5ebec7d5bd14f71427d1e84f3dd0314c0f7b2291e5b200ac8c7c3b9259061032e9086815260200190565b60405180910390a35060015b92915050565b6001600160a01b03831660009081526005602090815260408083203384529091528120548211156103ad5760405162461bcd60e51b8152602060048201526012602482015271105b1b1bddd85b98d948195e18d95959195960721b60448201526064015b60405180910390fd5b6001600160a01b0384166000908152600560209081526040808320338452909152812080548492906103e0908490610dd2565b909155506103f190508484846108be565b5060015b9392505050565b3360009081526004602052604081205482111561045b5760405162461bcd60e51b815260206004820152601c60248201527f496e73756666696369656e742062616c616e636520746f206275726e0000000060448201526064016103a4565b336000908152600460205260408120805484929061047a908490610dd2565b9250508190555081600360008282546104939190610dd2565b909155505060405182815233907fcc16f5dbb4873280815c1ee09dbd06736cffcc184412cf7a71a0fdb75d397ca59060200160405180910390a2506001919050565b6001600160a01b03821660009081526004602052604081205482111561053d5760405162461bcd60e51b815260206004820152601c60248201527f496e73756666696369656e742062616c616e636520746f206275726e0000000060448201526064016103a4565b6001600160a01b03831660009081526005602090815260408083203384529091529020548211156105a55760405162461bcd60e51b8152602060048201526012602482015271105b1b1bddd85b98d948195e18d95959195960721b60448201526064016103a4565b6001600160a01b038316600090815260046020526040812080548492906105cd908490610dd2565b90915550506001600160a01b038316600090815260056020908152604080832033845290915281208054849290610605908490610dd2565b92505081905550816003600082825461061e9190610dd2565b90915550506040518281526001600160a01b038416907fcc16f5dbb4873280815c1ee09dbd06736cffcc184412cf7a71a0fdb75d397ca59060200160405180910390a250600192915050565b6001805461025290610d82565b60006106843384846108be565b50600192915050565b6060806000806000600160035460046000336001600160a01b03166001600160a01b03168152602001908152602001600020548380546106cc90610d82565b80601f01602080910402602001604051908101604052809291908181526020018280546106f890610d82565b80156107455780601f1061071a57610100808354040283529160200191610745565b820191906000526020600020905b81548152906001019060200180831161072857829003601f168201915b5050505050935082805461075890610d82565b80601f016020809104026020016040519081016040528092919081815260200182805461078490610d82565b80156107d15780601f106107a6576101008083540402835291602001916107d1565b820191906000526020600020905b8154815290600101906020018083116107b457829003601f168201915b50505050509250935093509350935090919293565b6002546107f79060ff16600a610ec9565b6108019082610ed5565b6003819055336000908152600460205260408120919091556108238482610f3b565b5060016108308382610f3b565b50505050565b60008361084381856102d3565b156108b657604051638f4ffcb160e01b81526001600160a01b03821690638f4ffcb19061087a903390889030908990600401610ffb565b600060405180830381600087803b15801561089457600080fd5b505af11580156108a8573d6000803e3d6000fd5b5050505060019150506103f5565b509392505050565b6001600160a01b0382166109145760405162461bcd60e51b815260206004820152601f60248201527f43616e6e6f74207472616e7366657220746f207a65726f20616464726573730060448201526064016103a4565b6001600160a01b0383166000908152600460205260409020548111156109735760405162461bcd60e51b8152602060048201526014602482015273496e73756666696369656e742062616c616e636560601b60448201526064016103a4565b6001600160a01b0382166000908152600460205260409020546109968282611038565b10156109d55760405162461bcd60e51b815260206004820152600e60248201526d27bb32b9333637bb9032b93937b960911b60448201526064016103a4565b6001600160a01b038316600090815260046020526040812080548392906109fd908490610dd2565b90915550506001600160a01b03821660009081526004602052604081208054839290610a2a908490611038565b92505081905550816001600160a01b0316836001600160a01b03167fddf252ad1be2c89b69c2b068fc378daa952ba7f163c4a11628f55a4df523b3ef83604051610a7691815260200190565b60405180910390a3505050565b6000815180845260005b81811015610aa957602081850181015186830182015201610a8d565b506000602082860101526020601f19601f83011685010191505092915050565b6020815260006103f56020830184610a83565b80356001600160a01b0381168114610af357600080fd5b919050565b60008060408385031215610b0b57600080fd5b610b1483610adc565b946020939093013593505050565b600080600060608486031215610b3757600080fd5b610b4084610adc565b9250610b4e60208501610adc565b9150604084013590509250925092565b600060208284031215610b7057600080fd5b5035919050565b600060208284031215610b8957600080fd5b6103f582610adc565b608081526000610ba56080830187610a83565b8281036020840152610bb78187610a83565b604084019590955250506060015292915050565b634e487b7160e01b600052604160045260246000fd5b600067ffffffffffffffff80841115610bfc57610bfc610bcb565b604051601f8501601f19908116603f01168101908282118183101715610c2457610c24610bcb565b81604052809350858152868686011115610c3d57600080fd5b858560208301376000602087830101525050509392505050565b600082601f830112610c6857600080fd5b6103f583833560208501610be1565b600080600060608486031215610c8c57600080fd5b833567ffffffffffffffff80821115610ca457600080fd5b610cb087838801610c57565b94506020860135915080821115610cc657600080fd5b50610cd386828701610c57565b925050604084013590509250925092565b600080600060608486031215610cf957600080fd5b610d0284610adc565b925060208401359150604084013567ffffffffffffffff811115610d2557600080fd5b8401601f81018613610d3657600080fd5b610d4586823560208401610be1565b9150509250925092565b60008060408385031215610d6257600080fd5b610d6b83610adc565b9150610d7960208401610adc565b90509250929050565b600181811c90821680610d9657607f821691505b602082108103610db657634e487b7160e01b600052602260045260246000fd5b50919050565b634e487b7160e01b600052601160045260246000fd5b8181038181111561033a5761033a610dbc565b600181815b80851115610e20578160001904821115610e0657610e06610dbc565b80851615610e1357918102915b93841c9390800290610dea565b509250929050565b600082610e375750600161033a565b81610e445750600061033a565b8160018114610e5a5760028114610e6457610e80565b600191505061033a565b60ff841115610e7557610e75610dbc565b50506001821b61033a565b5060208310610133831016604e8410600b8410161715610ea3575081810a61033a565b610ead8383610de5565b8060001904821115610ec157610ec1610dbc565b029392505050565b60006103f58383610e28565b808202811582820484141761033a5761033a610dbc565b601f821115610f3657600081815260208120601f850160051c81016020861015610f135750805b601f850160051c820191505b81811015610f3257828155600101610f1f565b5050505b505050565b815167ffffffffffffffff811115610f5557610f55610bcb565b610f6981610f638454610d82565b84610eec565b602080601f831160018114610f9e5760008415610f865750858301515b600019600386901b1c1916600185901b178555610f32565b600085815260208120601f198616915b82811015610fcd57888601518255948401946001909101908401610fae565b5085821015610feb5787850151600019600388901b60f8161c191681555b5050505050600190811b01905550565b6001600160a01b038581168252602082018590528316604082015260806060820181905260009061102e90830184610a83565b9695505050505050565b8082018082111561033a5761033a610dbc56fea2646970667358221220c70adaaf0e533146294cf5c0e4607c341e6451adb6078985b0386abd0e7efbb064736f6c63430008120033","linkReferences":{}},"methodIdentifiers":{"allowance(address,address)":"dd62ed3e","approve(address,uint256)":"095ea7b3","approveAndCall(address,uint256,bytes)":"cae9ca51","balanceOf(address)":"70a08231","burn(uint256)":"42966c68","burnFrom(address,uint256)":"79cc6790","decimals()":"313ce567","getTokenInfo()":"abb1dc44","initialize(string,string,uint256)":"b119490e","name()":"06fdde03","symbol()":"95d89b41","totalSupply()":"18160ddd","transfer(address,uint256)":"a9059cbb","transferFrom(address,address,uint256)":"23b872dd"},"id":20}